{
  "_format": "hh-sol-artifact-1",
  "contractName": "Dappazon",
  "sourceName": "contracts/Dappazon.sol",
  "abi": [
    {
      "inputs": [],
      "stateMutability": "nonpayable",
      "type": "constructor"
    },
    {
      "anonymous": false,
      "inputs": [
        {
          "indexed": true,
          "internalType": "address",
          "name": "buyer",
          "type": "address"
        },
        {
          "indexed": false,
          "internalType": "uint256",
          "name": "itemId",
          "type": "uint256"
        },
        {
          "indexed": false,
          "internalType": "uint256",
          "name": "cost",
          "type": "uint256"
        },
        {
          "indexed": false,
          "internalType": "uint256",
          "name": "time",
          "type": "uint256"
        }
      ],
      "name": "Buy",
      "type": "event"
    },
    {
      "anonymous": false,
      "inputs": [
        {
          "indexed": false,
          "internalType": "string",
          "name": "name",
          "type": "string"
        },
        {
          "indexed": false,
          "internalType": "uint256",
          "name": "cost",
          "type": "uint256"
        },
        {
          "indexed": false,
          "internalType": "uint256",
          "name": "quantity",
          "type": "uint256"
        }
      ],
      "name": "List",
      "type": "event"
    },
    {
      "inputs": [
        {
          "internalType": "uint256",
          "name": "_id",
          "type": "uint256"
        }
      ],
      "name": "buy",
      "outputs": [],
      "stateMutability": "payable",
      "type": "function"
    },
    {
      "inputs": [],
      "name": "getOrders",
      "outputs": [
        {
          "components": [
            {
              "internalType": "uint256",
              "name": "time",
              "type": "uint256"
            },
            {
              "internalType": "uint256",
              "name": "itemId",
              "type": "uint256"
            },
            {
              "internalType": "address",
              "name": "buyer",
              "type": "address"
            },
            {
              "internalType": "uint256",
              "name": "cost",
              "type": "uint256"
            }
          ],
          "internalType": "struct Dappazon.Order[]",
          "name": "",
          "type": "tuple[]"
        }
      ],
      "stateMutability": "view",
      "type": "function"
    },
    {
      "inputs": [
        {
          "internalType": "uint256",
          "name": "",
          "type": "uint256"
        }
      ],
      "name": "items",
      "outputs": [
        {
          "internalType": "uint256",
          "name": "id",
          "type": "uint256"
        },
        {
          "internalType": "string",
          "name": "name",
          "type": "string"
        },
        {
          "internalType": "string",
          "name": "category",
          "type": "string"
        },
        {
          "internalType": "string",
          "name": "image",
          "type": "string"
        },
        {
          "internalType": "uint256",
          "name": "cost",
          "type": "uint256"
        },
        {
          "internalType": "uint256",
          "name": "rating",
          "type": "uint256"
        },
        {
          "internalType": "uint256",
          "name": "stock",
          "type": "uint256"
        }
      ],
      "stateMutability": "view",
      "type": "function"
    },
    {
      "inputs": [
        {
          "internalType": "uint256",
          "name": "_id",
          "type": "uint256"
        },
        {
          "internalType": "string",
          "name": "_name",
          "type": "string"
        },
        {
          "internalType": "string",
          "name": "_category",
          "type": "string"
        },
        {
          "internalType": "string",
          "name": "_image",
          "type": "string"
        },
        {
          "internalType": "uint256",
          "name": "_cost",
          "type": "uint256"
        },
        {
          "internalType": "uint256",
          "name": "_rating",
          "type": "uint256"
        },
        {
          "internalType": "uint256",
          "name": "_stock",
          "type": "uint256"
        }
      ],
      "name": "list",
      "outputs": [],
      "stateMutability": "nonpayable",
      "type": "function"
    },
    {
      "inputs": [
        {
          "internalType": "uint256",
          "name": "",
          "type": "uint256"
        }
      ],
      "name": "orders",
      "outputs": [
        {
          "internalType": "uint256",
          "name": "time",
          "type": "uint256"
        },
        {
          "internalType": "uint256",
          "name": "itemId",
          "type": "uint256"
        },
        {
          "internalType": "address",
          "name": "buyer",
          "type": "address"
        },
        {
          "internalType": "uint256",
          "name": "cost",
          "type": "uint256"
        }
      ],
      "stateMutability": "view",
      "type": "function"
    },
    {
      "inputs": [],
      "name": "owner",
      "outputs": [
        {
          "internalType": "address",
          "name": "",
          "type": "address"
        }
      ],
      "stateMutability": "view",
      "type": "function"
    },
    {
      "inputs": [],
      "name": "seller",
      "outputs": [
        {
          "internalType": "address",
          "name": "",
          "type": "address"
        }
      ],
      "stateMutability": "view",
      "type": "function"
    }
  ],
  "bytecode": "0x608060405273fabb0ac9d68b0b445fb7357272ff202c5651694a600160006101000a81548173ffffffffffffffffffffffffffffffffffffffff021916908373ffffffffffffffffffffffffffffffffffffffff16021790555034801561006557600080fd5b50336000806101000a81548173ffffffffffffffffffffffffffffffffffffffff021916908373ffffffffffffffffffffffffffffffffffffffff1602179055506117f3806100b56000396000f3fe6080604052600436106100705760003560e01c8063a85c38ef1161004e578063a85c38ef146100f6578063bfb231d214610136578063d96a094a14610179578063eea8a7e81461019557610070565b806308551a53146100755780632e2dc43e146100a05780638da5cb5b146100cb575b600080fd5b34801561008157600080fd5b5061008a6101be565b6040516100979190610c21565b60405180910390f35b3480156100ac57600080fd5b506100b56101e4565b6040516100c29190610d68565b60405180910390f35b3480156100d757600080fd5b506100e0610347565b6040516100ed9190610c21565b60405180910390f35b34801561010257600080fd5b5061011d60048036038101906101189190610dca565b61036b565b60405161012d9493929190610e06565b60405180910390f35b34801561014257600080fd5b5061015d60048036038101906101589190610dca565b6103cb565b6040516101709796959493929190610edb565b60405180910390f35b610193600480360381019061018e9190610dca565b6105a5565b005b3480156101a157600080fd5b506101bc60048036038101906101b79190611094565b610a55565b005b600160009054906101000a900473ffffffffffffffffffffffffffffffffffffffff1681565b6060600160009054906101000a900473ffffffffffffffffffffffffffffffffffffffff1673ffffffffffffffffffffffffffffffffffffffff163373ffffffffffffffffffffffffffffffffffffffff1614610276576040517f08c379a000000000000000000000000000000000000000000000000000000000815260040161026d906111d6565b60405180910390fd5b6003805480602002602001604051908101604052809291908181526020016000905b8282101561033e578382906000526020600020906004020160405180608001604052908160008201548152602001600182015481526020016002820160009054906101000a900473ffffffffffffffffffffffffffffffffffffffff1673ffffffffffffffffffffffffffffffffffffffff1673ffffffffffffffffffffffffffffffffffffffff16815260200160038201548152505081526020019060010190610298565b50505050905090565b60008054906101000a900473ffffffffffffffffffffffffffffffffffffffff1681565b6003818154811061037b57600080fd5b90600052602060002090600402016000915090508060000154908060010154908060020160009054906101000a900473ffffffffffffffffffffffffffffffffffffffff16908060030154905084565b60026020528060005260406000206000915090508060000154908060010180546103f490611225565b80601f016020809104026020016040519081016040528092919081815260200182805461042090611225565b801561046d5780601f106104425761010080835404028352916020019161046d565b820191906000526020600020905b81548152906001019060200180831161045057829003601f168201915b50505050509080600201805461048290611225565b80601f01602080910402602001604051908101604052809291908181526020018280546104ae90611225565b80156104fb5780601f106104d0576101008083540402835291602001916104fb565b820191906000526020600020905b8154815290600101906020018083116104de57829003601f168201915b50505050509080600301805461051090611225565b80601f016020809104026020016040519081016040528092919081815260200182805461053c90611225565b80156105895780601f1061055e57610100808354040283529160200191610589565b820191906000526020600020905b81548152906001019060200180831161056c57829003601f168201915b5050505050908060040154908060050154908060060154905087565b6000600260008381526020019081526020016000206040518060e0016040529081600082015481526020016001820180546105df90611225565b80601f016020809104026020016040519081016040528092919081815260200182805461060b90611225565b80156106585780601f1061062d57610100808354040283529160200191610658565b820191906000526020600020905b81548152906001019060200180831161063b57829003601f168201915b5050505050815260200160028201805461067190611225565b80601f016020809104026020016040519081016040528092919081815260200182805461069d90611225565b80156106ea5780601f106106bf576101008083540402835291602001916106ea565b820191906000526020600020905b8154815290600101906020018083116106cd57829003601f168201915b5050505050815260200160038201805461070390611225565b80601f016020809104026020016040519081016040528092919081815260200182805461072f90611225565b801561077c5780601f106107515761010080835404028352916020019161077c565b820191906000526020600020905b81548152906001019060200180831161075f57829003601f168201915b505050505081526020016004820154815260200160058201548152602001600682015481525050905080608001513410156107ec576040517f08c379a00000000000000000000000000000000000000000000000000000000081526004016107e3906112a2565b60405180910390fd5b60008160c0015111610833576040517f08c379a000000000000000000000000000000000000000000000000000000000815260040161082a9061130e565b60405180910390fd5b60026000838152602001908152602001600020600601600081548092919061085a9061135d565b9190505550600360405180608001604052804281526020018481526020013373ffffffffffffffffffffffffffffffffffffffff16815260200183608001518152509080600181540180825580915050600190039060005260206000209060040201600090919091909150600082015181600001556020820151816001015560408201518160020160006101000a81548173ffffffffffffffffffffffffffffffffffffffff021916908373ffffffffffffffffffffffffffffffffffffffff1602179055506060820151816003015550506000600160009054906101000a900473ffffffffffffffffffffffffffffffffffffffff1673ffffffffffffffffffffffffffffffffffffffff1634604051610974906113b7565b60006040518083038185875af1925050503d80600081146109b1576040519150601f19603f3d011682016040523d82523d6000602084013e6109b6565b606091505b50509050806109fa576040517f08c379a00000000000000000000000000000000000000000000000000000000081526004016109f190611418565b60405180910390fd5b3373ffffffffffffffffffffffffffffffffffffffff167fbeae048c6d270d9469f86cf6e8fedda3c60ad770f16c24c9fc131c8e9a09101d84846080015142604051610a4893929190611438565b60405180910390a2505050565b60008054906101000a900473ffffffffffffffffffffffffffffffffffffffff1673ffffffffffffffffffffffffffffffffffffffff163373ffffffffffffffffffffffffffffffffffffffff1614610ae3576040517f08c379a0000000000000000000000000000000000000000000000000000000008152600401610ada906114e1565b60405180910390fd5b60006040518060e0016040528089815260200188815260200187815260200186815260200185815260200184815260200183815250905080600260008a8152602001908152602001600020600082015181600001556020820151816001019081610b4d91906116ad565b506040820151816002019081610b6391906116ad565b506060820151816003019081610b7991906116ad565b506080820151816004015560a0820151816005015560c082015181600601559050507ffdbe2a012c10ec01592653978eaa09b5ca60b143a0e617505b2ebcbd911ec5b8878584604051610bce9392919061177f565b60405180910390a15050505050505050565b600073ffffffffffffffffffffffffffffffffffffffff82169050919050565b6000610c0b82610be0565b9050919050565b610c1b81610c00565b82525050565b6000602082019050610c366000830184610c12565b92915050565b600081519050919050565b600082825260208201905092915050565b6000819050602082019050919050565b6000819050919050565b610c7b81610c68565b82525050565b610c8a81610c00565b82525050565b608082016000820151610ca66000850182610c72565b506020820151610cb96020850182610c72565b506040820151610ccc6040850182610c81565b506060820151610cdf6060850182610c72565b50505050565b6000610cf18383610c90565b60808301905092915050565b6000602082019050919050565b6000610d1582610c3c565b610d1f8185610c47565b9350610d2a83610c58565b8060005b83811015610d5b578151610d428882610ce5565b9750610d4d83610cfd565b925050600181019050610d2e565b5085935050505092915050565b60006020820190508181036000830152610d828184610d0a565b905092915050565b6000604051905090565b600080fd5b600080fd5b610da781610c68565b8114610db257600080fd5b50565b600081359050610dc481610d9e565b92915050565b600060208284031215610de057610ddf610d94565b5b6000610dee84828501610db5565b91505092915050565b610e0081610c68565b82525050565b6000608082019050610e1b6000830187610df7565b610e286020830186610df7565b610e356040830185610c12565b610e426060830184610df7565b95945050505050565b600081519050919050565b600082825260208201905092915050565b60005b83811015610e85578082015181840152602081019050610e6a565b60008484015250505050565b6000601f19601f8301169050919050565b6000610ead82610e4b565b610eb78185610e56565b9350610ec7818560208601610e67565b610ed081610e91565b840191505092915050565b600060e082019050610ef0600083018a610df7565b8181036020830152610f028189610ea2565b90508181036040830152610f168188610ea2565b90508181036060830152610f2a8187610ea2565b9050610f396080830186610df7565b610f4660a0830185610df7565b610f5360c0830184610df7565b98975050505050505050565b600080fd5b600080fd5b7f4e487b7100000000000000000000000000000000000000000000000000000000600052604160045260246000fd5b610fa182610e91565b810181811067ffffffffffffffff82111715610fc057610fbf610f69565b5b80604052505050565b6000610fd3610d8a565b9050610fdf8282610f98565b919050565b600067ffffffffffffffff821115610fff57610ffe610f69565b5b61100882610e91565b9050602081019050919050565b82818337600083830152505050565b600061103761103284610fe4565b610fc9565b90508281526020810184848401111561105357611052610f64565b5b61105e848285611015565b509392505050565b600082601f83011261107b5761107a610f5f565b5b813561108b848260208601611024565b91505092915050565b600080600080600080600060e0888a0312156110b3576110b2610d94565b5b60006110c18a828b01610db5565b975050602088013567ffffffffffffffff8111156110e2576110e1610d99565b5b6110ee8a828b01611066565b965050604088013567ffffffffffffffff81111561110f5761110e610d99565b5b61111b8a828b01611066565b955050606088013567ffffffffffffffff81111561113c5761113b610d99565b5b6111488a828b01611066565b94505060806111598a828b01610db5565b93505060a061116a8a828b01610db5565b92505060c061117b8a828b01610db5565b91505092959891949750929550565b7f4f6e6c792073656c6c65722063616e2076696577206f72646572730000000000600082015250565b60006111c0601b83610e56565b91506111cb8261118a565b602082019050919050565b600060208201905081810360008301526111ef816111b3565b9050919050565b7f4e487b7100000000000000000000000000000000000000000000000000000000600052602260045260246000fd5b6000600282049050600182168061123d57607f821691505b6020821081036112505761124f6111f6565b5b50919050565b7f496e73756666696369656e742066756e64730000000000000000000000000000600082015250565b600061128c601283610e56565b915061129782611256565b602082019050919050565b600060208201905081810360008301526112bb8161127f565b9050919050565b7f4974656d206f7574206f662073746f636b000000000000000000000000000000600082015250565b60006112f8601183610e56565b9150611303826112c2565b602082019050919050565b60006020820190508181036000830152611327816112eb565b9050919050565b7f4e487b7100000000000000000000000000000000000000000000000000000000600052601160045260246000fd5b600061136882610c68565b91506000820361137b5761137a61132e565b5b600182039050919050565b600081905092915050565b50565b60006113a1600083611386565b91506113ac82611391565b600082019050919050565b60006113c282611394565b9150819050919050565b7f5472616e7366657220746f2073656c6c6572206661696c656400000000000000600082015250565b6000611402601983610e56565b915061140d826113cc565b602082019050919050565b60006020820190508181036000830152611431816113f5565b9050919050565b600060608201905061144d6000830186610df7565b61145a6020830185610df7565b6114676040830184610df7565b949350505050565b7f4f6e6c79206f776e65722063616e2063616c6c20746869732066756e6374696f60008201527f6e00000000000000000000000000000000000000000000000000000000000000602082015250565b60006114cb602183610e56565b91506114d68261146f565b604082019050919050565b600060208201905081810360008301526114fa816114be565b9050919050565b60008190508160005260206000209050919050565b60006020601f8301049050919050565b600082821b905092915050565b6000600883026115637fffffffffffffffffffffffffffffffffffffffffffffffffffffffffffffffff82611526565b61156d8683611526565b95508019841693508086168417925050509392505050565b6000819050919050565b60006115aa6115a56115a084610c68565b611585565b610c68565b9050919050565b6000819050919050565b6115c48361158f565b6115d86115d0826115b1565b848454611533565b825550505050565b600090565b6115ed6115e0565b6115f88184846115bb565b505050565b5b8181101561161c576116116000826115e5565b6001810190506115fe565b5050565b601f8211156116615761163281611501565b61163b84611516565b8101602085101561164a578190505b61165e61165685611516565b8301826115fd565b50505b505050565b600082821c905092915050565b600061168460001984600802611666565b1980831691505092915050565b600061169d8383611673565b9150826002028217905092915050565b6116b682610e4b565b67ffffffffffffffff8111156116cf576116ce610f69565b5b6116d98254611225565b6116e4828285611620565b600060209050601f8311600181146117175760008415611705578287015190505b61170f8582611691565b865550611777565b601f19841661172586611501565b60005b8281101561174d57848901518255600182019150602085019450602081019050611728565b8683101561176a5784890151611766601f891682611673565b8355505b6001600288020188555050505b505050505050565b600060608201905081810360008301526117998186610ea2565b90506117a86020830185610df7565b6117b56040830184610df7565b94935050505056fea26469706673582212207905bb408313d7121e098e50632eb126e8d6bef553d2ae556bc642f2ffe1d96564736f6c63430008110033",
  "linkReferences": {},
  "deployedLinkReferences": {}
}